{
  "_format": "hh-sol-artifact-1",
  "contractName": "Crypdex",
  "sourceName": "contracts/Crypdex.sol",
  "abi": [
    {
      "anonymous": false,
      "inputs": [
        {
          "indexed": false,
          "internalType": "uint256",
          "name": "value",
          "type": "uint256"
        }
      ],
      "name": "ContractBalance",
      "type": "event"
    },
    {
      "anonymous": false,
      "inputs": [
        {
          "indexed": false,
          "internalType": "uint256",
          "name": "balance",
          "type": "uint256"
        }
      ],
      "name": "Swapped",
      "type": "event"
    },
    {
      "anonymous": false,
      "inputs": [
        {
          "indexed": false,
          "internalType": "uint256",
          "name": "balance",
          "type": "uint256"
        }
      ],
      "name": "WEthConverted",
      "type": "event"
    },
    {
      "inputs": [],
      "name": "BALANCER",
      "outputs": [
        {
          "internalType": "address",
          "name": "",
          "type": "address"
        }
      ],
      "stateMutability": "view",
      "type": "function"
    },
    {
      "inputs": [],
      "name": "USDC",
      "outputs": [
        {
          "internalType": "address",
          "name": "",
          "type": "address"
        }
      ],
      "stateMutability": "view",
      "type": "function"
    },
    {
      "inputs": [],
      "name": "WMATIC",
      "outputs": [
        {
          "internalType": "address",
          "name": "",
          "type": "address"
        }
      ],
      "stateMutability": "view",
      "type": "function"
    },
    {
      "inputs": [],
      "name": "deposit",
      "outputs": [],
      "stateMutability": "payable",
      "type": "function"
    },
    {
      "inputs": [],
      "name": "purchaseFund",
      "outputs": [],
      "stateMutability": "payable",
      "type": "function"
    },
    {
      "stateMutability": "payable",
      "type": "receive"
    }
  ],
  "bytecode": "0x608060405234801561001057600080fd5b5061112b806100206000396000f3fe60806040526004361061004e5760003560e01c80634d95cad91461005a5780636416d6381461008557806389a302711461008f57806396f50b2d146100ba578063d0e30db0146100e557610055565b3661005557005b600080fd5b34801561006657600080fd5b5061006f6100ef565b60405161007c9190610d5a565b60405180910390f35b61008d610107565b005b34801561009b57600080fd5b506100a461059a565b6040516100b19190610d5a565b60405180910390f35b3480156100c657600080fd5b506100cf6105b2565b6040516100dc9190610d5a565b60405180910390f35b6100ed6105ca565b005b730d500b1d8e8ef31e21c99d1db9a6444d3adf127081565b7f9eda563474dcf999b0332c34dedb9066a385693682ea01c43234fa4e95668a0e476040516101369190610e25565b60405180910390a160008060003373ffffffffffffffffffffffffffffffffffffffff1673ffffffffffffffffffffffffffffffffffffffff1681526020019081526020016000206000016000730d500b1d8e8ef31e21c99d1db9a6444d3adf127073ffffffffffffffffffffffffffffffffffffffff1673ffffffffffffffffffffffffffffffffffffffff1681526020019081526020016000205490507f9eda563474dcf999b0332c34dedb9066a385693682ea01c43234fa4e95668a0e816040516102049190610e25565b60405180910390a161023f730d500b1d8e8ef31e21c99d1db9a6444d3adf127073ba12222222228d8ba445958a75a0704d566bf2c883610971565b6000806040516020016102529190610d9e565b604051602081830303815290604052905060006040518060c001604052807fd208168d2a512240eb82582205d94a0710bce4e700010000000000000000003860001b8152602001600060018111156102d3577f4e487b7100000000000000000000000000000000000000000000000000000000600052602160045260246000fd5b8152602001730d500b1d8e8ef31e21c99d1db9a6444d3adf127073ffffffffffffffffffffffffffffffffffffffff168152602001732791bca1f2de4661ed88a30c99a7a9449aa8417473ffffffffffffffffffffffffffffffffffffffff168152602001848152602001838152509050600060405180608001604052803073ffffffffffffffffffffffffffffffffffffffff1681526020016000151581526020013073ffffffffffffffffffffffffffffffffffffffff168152602001600015158152509050600073ba12222222228d8ba445958a75a0704d566bf2c873ffffffffffffffffffffffffffffffffffffffff166352bbbe2984846000610bb8426103df9190610e78565b6040518563ffffffff1660e01b81526004016103fe9493929190610dd9565b602060405180830381600087803b15801561041857600080fd5b505af115801561042c573d6000803e3d6000fd5b505050506040513d601f19601f820116820180604052508101906104509190610b19565b90507f0ce6b316c91b55b8b3890333c26dd18cc635e11e8188ddba7f72ffffca64ce6f816040516104819190610e25565b60405180910390a17f9eda563474dcf999b0332c34dedb9066a385693682ea01c43234fa4e95668a0e476040516104b89190610e25565b60405180910390a17f9eda563474dcf999b0332c34dedb9066a385693682ea01c43234fa4e95668a0e732791bca1f2de4661ed88a30c99a7a9449aa8417473ffffffffffffffffffffffffffffffffffffffff166370a08231306040518263ffffffff1660e01b815260040161052e9190610d5a565b60206040518083038186803b15801561054657600080fd5b505afa15801561055a573d6000803e3d6000fd5b505050506040513d601f19601f8201168201806040525081019061057e9190610b19565b60405161058b9190610e25565b60405180910390a15050505050565b732791bca1f2de4661ed88a30c99a7a9449aa8417481565b73ba12222222228d8ba445958a75a0704d566bf2c881565b60008060003373ffffffffffffffffffffffffffffffffffffffff1673ffffffffffffffffffffffffffffffffffffffff1681526020019081526020016000209050806001016001016000730d500b1d8e8ef31e21c99d1db9a6444d3adf127073ffffffffffffffffffffffffffffffffffffffff1673ffffffffffffffffffffffffffffffffffffffff16815260200190815260200160002060009054906101000a900460ff166107645780600101600001730d500b1d8e8ef31e21c99d1db9a6444d3adf12709080600181540180825580915050600190039060005260206000200160009091909190916101000a81548173ffffffffffffffffffffffffffffffffffffffff021916908373ffffffffffffffffffffffffffffffffffffffff1602179055506001816001016001016000730d500b1d8e8ef31e21c99d1db9a6444d3adf127073ffffffffffffffffffffffffffffffffffffffff1673ffffffffffffffffffffffffffffffffffffffff16815260200190815260200160002060006101000a81548160ff0219169083151502179055505b730d500b1d8e8ef31e21c99d1db9a6444d3adf127073ffffffffffffffffffffffffffffffffffffffff1663d0e30db0346040518263ffffffff1660e01b81526004016000604051808303818588803b1580156107c057600080fd5b505af11580156107d4573d6000803e3d6000fd5b5050505050730d500b1d8e8ef31e21c99d1db9a6444d3adf127073ffffffffffffffffffffffffffffffffffffffff166370a08231306040518263ffffffff1660e01b81526004016108269190610d5a565b60206040518083038186803b15801561083e57600080fd5b505afa158015610852573d6000803e3d6000fd5b505050506040513d601f19601f820116820180604052508101906108769190610b19565b816000016000730d500b1d8e8ef31e21c99d1db9a6444d3adf127073ffffffffffffffffffffffffffffffffffffffff1673ffffffffffffffffffffffffffffffffffffffff168152602001908152602001600020819055507fb46e9557d9df9f237f6d715e12e6e365f032bcfcd75890d85c1f4690301df09b670de0b6b3a7640000826000016000730d500b1d8e8ef31e21c99d1db9a6444d3adf127073ffffffffffffffffffffffffffffffffffffffff1673ffffffffffffffffffffffffffffffffffffffff168152602001908152602001600020546109599190610ece565b6040516109669190610e25565b60405180910390a150565b6000808473ffffffffffffffffffffffffffffffffffffffff1663095ea7b360e01b85856040516024016109a6929190610d75565b604051602081830303815290604052907bffffffffffffffffffffffffffffffffffffffffffffffffffffffff19166020820180517bffffffffffffffffffffffffffffffffffffffffffffffffffffffff8381831617835250505050604051610a109190610d43565b6000604051808303816000865af19150503d8060008114610a4d576040519150601f19603f3d011682016040523d82523d6000602084013e610a52565b606091505b5091509150818015610a805750600081511480610a7f575080806020019051810190610a7e9190610af0565b5b5b610abf576040517f08c379a0000000000000000000000000000000000000000000000000000000008152600401610ab690610db9565b60405180910390fd5b5050505050565b600081519050610ad5816110c7565b92915050565b600081519050610aea816110de565b92915050565b600060208284031215610b0257600080fd5b6000610b1084828501610ac6565b91505092915050565b600060208284031215610b2b57600080fd5b6000610b3984828501610adb565b91505092915050565b610b4b81610f11565b82525050565b610b5a81610eff565b82525050565b610b6981610eff565b82525050565b610b7881610f23565b82525050565b610b8781610f2f565b82525050565b6000610b9882610e40565b610ba28185610e4b565b9350610bb2818560208601610fb9565b610bbb81611079565b840191505092915050565b6000610bd182610e40565b610bdb8185610e5c565b9350610beb818560208601610fb9565b80840191505092915050565b610c0081610f83565b82525050565b610c0f81610f95565b82525050565b610c1e81610fa7565b82525050565b6000610c31600283610e67565b9150610c3c8261108a565b602082019050919050565b608082016000820151610c5d6000850182610b51565b506020820151610c706020850182610b6f565b506040820151610c836040850182610b42565b506060820151610c966060850182610b6f565b50505050565b600060c083016000830151610cb46000860182610b7e565b506020830151610cc76020860182610bf7565b506040830151610cda6040860182610b51565b506060830151610ced6060860182610b51565b506080830151610d006080860182610d25565b5060a083015184820360a0860152610d188282610b8d565b9150508091505092915050565b610d2e81610f6c565b82525050565b610d3d81610f6c565b82525050565b6000610d4f8284610bc6565b915081905092915050565b6000602082019050610d6f6000830184610b60565b92915050565b6000604082019050610d8a6000830185610b60565b610d976020830184610d34565b9392505050565b6000602082019050610db36000830184610c15565b92915050565b60006020820190508181036000830152610dd281610c24565b9050919050565b600060e0820190508181036000830152610df38187610c9c565b9050610e026020830186610c47565b610e0f60a0830185610c06565b610e1c60c0830184610d34565b95945050505050565b6000602082019050610e3a6000830184610d34565b92915050565b600081519050919050565b600082825260208201905092915050565b600081905092915050565b600082825260208201905092915050565b6000610e8382610f6c565b9150610e8e83610f6c565b9250827fffffffffffffffffffffffffffffffffffffffffffffffffffffffffffffffff03821115610ec357610ec2610fec565b5b828201905092915050565b6000610ed982610f6c565b9150610ee483610f6c565b925082610ef457610ef361101b565b5b828204905092915050565b6000610f0a82610f4c565b9050919050565b6000610f1c82610f4c565b9050919050565b60008115159050919050565b6000819050919050565b6000819050610f47826110b3565b919050565b600073ffffffffffffffffffffffffffffffffffffffff82169050919050565b6000819050919050565b600060ff82169050919050565b6000610f8e82610f39565b9050919050565b6000610fa082610f6c565b9050919050565b6000610fb282610f76565b9050919050565b60005b83811015610fd7578082015181840152602081019050610fbc565b83811115610fe6576000848401525b50505050565b7f4e487b7100000000000000000000000000000000000000000000000000000000600052601160045260246000fd5b7f4e487b7100000000000000000000000000000000000000000000000000000000600052601260045260246000fd5b7f4e487b7100000000000000000000000000000000000000000000000000000000600052602160045260246000fd5b6000601f19601f8301169050919050565b7f5341000000000000000000000000000000000000000000000000000000000000600082015250565b600281106110c4576110c361104a565b5b50565b6110d081610f23565b81146110db57600080fd5b50565b6110e781610f6c565b81146110f257600080fd5b5056fea2646970667358221220a4176059185d629dd9ca044d81e9c517e9d3bf64747fc85d0b52f9ba27c3826d64736f6c63430008040033",
  "linkReferences": {},
  "deployedLinkReferences": {}
}