{
  "_format": "hh-sol-artifact-1",
  "contractName": "Crypdex",
  "sourceName": "contracts/Crypdex.sol",
  "abi": [
    {
      "anonymous": false,
      "inputs": [
        {
          "indexed": false,
          "internalType": "uint256",
          "name": "value",
          "type": "uint256"
        }
      ],
      "name": "ContractBalance",
      "type": "event"
    },
    {
      "anonymous": false,
      "inputs": [
        {
          "indexed": false,
          "internalType": "uint256",
          "name": "balance",
          "type": "uint256"
        }
      ],
      "name": "Swapped",
      "type": "event"
    },
    {
      "anonymous": false,
      "inputs": [
        {
          "indexed": false,
          "internalType": "uint256",
          "name": "value",
          "type": "uint256"
        }
      ],
      "name": "USDCBalance",
      "type": "event"
    },
    {
      "anonymous": false,
      "inputs": [
        {
          "indexed": false,
          "internalType": "uint256",
          "name": "balance",
          "type": "uint256"
        }
      ],
      "name": "WMaticConverted",
      "type": "event"
    },
    {
      "inputs": [],
      "name": "BALANCER",
      "outputs": [
        {
          "internalType": "address",
          "name": "",
          "type": "address"
        }
      ],
      "stateMutability": "view",
      "type": "function"
    },
    {
      "inputs": [],
      "name": "USDC",
      "outputs": [
        {
          "internalType": "address",
          "name": "",
          "type": "address"
        }
      ],
      "stateMutability": "view",
      "type": "function"
    },
    {
      "inputs": [],
      "name": "WMATIC",
      "outputs": [
        {
          "internalType": "address",
          "name": "",
          "type": "address"
        }
      ],
      "stateMutability": "view",
      "type": "function"
    },
    {
      "inputs": [],
      "name": "deposit",
      "outputs": [],
      "stateMutability": "payable",
      "type": "function"
    },
    {
      "inputs": [],
      "name": "purchaseFund",
      "outputs": [],
      "stateMutability": "payable",
      "type": "function"
    },
    {
      "stateMutability": "payable",
      "type": "receive"
    }
  ],
  "bytecode": "0x608060405234801561001057600080fd5b506110f4806100206000396000f3fe60806040526004361061004e5760003560e01c80634d95cad91461005a5780636416d6381461008557806389a302711461008f57806396f50b2d146100ba578063d0e30db0146100e557610055565b3661005557005b600080fd5b34801561006657600080fd5b5061006f6100ef565b60405161007c9190610d23565b60405180910390f35b61008d610107565b005b34801561009b57600080fd5b506100a4610563565b6040516100b19190610d23565b60405180910390f35b3480156100c657600080fd5b506100cf61057b565b6040516100dc9190610d23565b60405180910390f35b6100ed610593565b005b730d500b1d8e8ef31e21c99d1db9a6444d3adf127081565b7f9eda563474dcf999b0332c34dedb9066a385693682ea01c43234fa4e95668a0e476040516101369190610dee565b60405180910390a160008060003373ffffffffffffffffffffffffffffffffffffffff1673ffffffffffffffffffffffffffffffffffffffff1681526020019081526020016000206000016000730d500b1d8e8ef31e21c99d1db9a6444d3adf127073ffffffffffffffffffffffffffffffffffffffff1673ffffffffffffffffffffffffffffffffffffffff168152602001908152602001600020549050610208730d500b1d8e8ef31e21c99d1db9a6444d3adf127073ba12222222228d8ba445958a75a0704d566bf2c88361093a565b60008060405160200161021b9190610d67565b604051602081830303815290604052905060006040518060c001604052807fd208168d2a512240eb82582205d94a0710bce4e700010000000000000000003860001b81526020016000600181111561029c577f4e487b7100000000000000000000000000000000000000000000000000000000600052602160045260246000fd5b8152602001730d500b1d8e8ef31e21c99d1db9a6444d3adf127073ffffffffffffffffffffffffffffffffffffffff168152602001732791bca1f2de4661ed88a30c99a7a9449aa8417473ffffffffffffffffffffffffffffffffffffffff168152602001848152602001838152509050600060405180608001604052803073ffffffffffffffffffffffffffffffffffffffff1681526020016000151581526020013073ffffffffffffffffffffffffffffffffffffffff168152602001600015158152509050600073ba12222222228d8ba445958a75a0704d566bf2c873ffffffffffffffffffffffffffffffffffffffff166352bbbe2984846000610bb8426103a89190610e41565b6040518563ffffffff1660e01b81526004016103c79493929190610da2565b602060405180830381600087803b1580156103e157600080fd5b505af11580156103f5573d6000803e3d6000fd5b505050506040513d601f19601f820116820180604052508101906104199190610ae2565b90507f0ce6b316c91b55b8b3890333c26dd18cc635e11e8188ddba7f72ffffca64ce6f8160405161044a9190610dee565b60405180910390a17f9eda563474dcf999b0332c34dedb9066a385693682ea01c43234fa4e95668a0e476040516104819190610dee565b60405180910390a17f248f4a76d8496577a0eb5c4cd3b143b74a15f61cb0c7b0ed2b4757844cd5299d732791bca1f2de4661ed88a30c99a7a9449aa8417473ffffffffffffffffffffffffffffffffffffffff166370a08231306040518263ffffffff1660e01b81526004016104f79190610d23565b60206040518083038186803b15801561050f57600080fd5b505afa158015610523573d6000803e3d6000fd5b505050506040513d601f19601f820116820180604052508101906105479190610ae2565b6040516105549190610dee565b60405180910390a15050505050565b732791bca1f2de4661ed88a30c99a7a9449aa8417481565b73ba12222222228d8ba445958a75a0704d566bf2c881565b60008060003373ffffffffffffffffffffffffffffffffffffffff1673ffffffffffffffffffffffffffffffffffffffff1681526020019081526020016000209050806001016001016000730d500b1d8e8ef31e21c99d1db9a6444d3adf127073ffffffffffffffffffffffffffffffffffffffff1673ffffffffffffffffffffffffffffffffffffffff16815260200190815260200160002060009054906101000a900460ff1661072d5780600101600001730d500b1d8e8ef31e21c99d1db9a6444d3adf12709080600181540180825580915050600190039060005260206000200160009091909190916101000a81548173ffffffffffffffffffffffffffffffffffffffff021916908373ffffffffffffffffffffffffffffffffffffffff1602179055506001816001016001016000730d500b1d8e8ef31e21c99d1db9a6444d3adf127073ffffffffffffffffffffffffffffffffffffffff1673ffffffffffffffffffffffffffffffffffffffff16815260200190815260200160002060006101000a81548160ff0219169083151502179055505b730d500b1d8e8ef31e21c99d1db9a6444d3adf127073ffffffffffffffffffffffffffffffffffffffff1663d0e30db0346040518263ffffffff1660e01b81526004016000604051808303818588803b15801561078957600080fd5b505af115801561079d573d6000803e3d6000fd5b5050505050730d500b1d8e8ef31e21c99d1db9a6444d3adf127073ffffffffffffffffffffffffffffffffffffffff166370a08231306040518263ffffffff1660e01b81526004016107ef9190610d23565b60206040518083038186803b15801561080757600080fd5b505afa15801561081b573d6000803e3d6000fd5b505050506040513d601f19601f8201168201806040525081019061083f9190610ae2565b816000016000730d500b1d8e8ef31e21c99d1db9a6444d3adf127073ffffffffffffffffffffffffffffffffffffffff1673ffffffffffffffffffffffffffffffffffffffff168152602001908152602001600020819055507f66929c28a2ae45d33bc8656bd4e70aec98139ce2191eb4ac9d23ec78fc073915670de0b6b3a7640000826000016000730d500b1d8e8ef31e21c99d1db9a6444d3adf127073ffffffffffffffffffffffffffffffffffffffff1673ffffffffffffffffffffffffffffffffffffffff168152602001908152602001600020546109229190610e97565b60405161092f9190610dee565b60405180910390a150565b6000808473ffffffffffffffffffffffffffffffffffffffff1663095ea7b360e01b858560405160240161096f929190610d3e565b604051602081830303815290604052907bffffffffffffffffffffffffffffffffffffffffffffffffffffffff19166020820180517bffffffffffffffffffffffffffffffffffffffffffffffffffffffff83818316178352505050506040516109d99190610d0c565b6000604051808303816000865af19150503d8060008114610a16576040519150601f19603f3d011682016040523d82523d6000602084013e610a1b565b606091505b5091509150818015610a495750600081511480610a48575080806020019051810190610a479190610ab9565b5b5b610a88576040517f08c379a0000000000000000000000000000000000000000000000000000000008152600401610a7f90610d82565b60405180910390fd5b5050505050565b600081519050610a9e81611090565b92915050565b600081519050610ab3816110a7565b92915050565b600060208284031215610acb57600080fd5b6000610ad984828501610a8f565b91505092915050565b600060208284031215610af457600080fd5b6000610b0284828501610aa4565b91505092915050565b610b1481610eda565b82525050565b610b2381610ec8565b82525050565b610b3281610ec8565b82525050565b610b4181610eec565b82525050565b610b5081610ef8565b82525050565b6000610b6182610e09565b610b6b8185610e14565b9350610b7b818560208601610f82565b610b8481611042565b840191505092915050565b6000610b9a82610e09565b610ba48185610e25565b9350610bb4818560208601610f82565b80840191505092915050565b610bc981610f4c565b82525050565b610bd881610f5e565b82525050565b610be781610f70565b82525050565b6000610bfa600283610e30565b9150610c0582611053565b602082019050919050565b608082016000820151610c266000850182610b1a565b506020820151610c396020850182610b38565b506040820151610c4c6040850182610b0b565b506060820151610c5f6060850182610b38565b50505050565b600060c083016000830151610c7d6000860182610b47565b506020830151610c906020860182610bc0565b506040830151610ca36040860182610b1a565b506060830151610cb66060860182610b1a565b506080830151610cc96080860182610cee565b5060a083015184820360a0860152610ce18282610b56565b9150508091505092915050565b610cf781610f35565b82525050565b610d0681610f35565b82525050565b6000610d188284610b8f565b915081905092915050565b6000602082019050610d386000830184610b29565b92915050565b6000604082019050610d536000830185610b29565b610d606020830184610cfd565b9392505050565b6000602082019050610d7c6000830184610bde565b92915050565b60006020820190508181036000830152610d9b81610bed565b9050919050565b600060e0820190508181036000830152610dbc8187610c65565b9050610dcb6020830186610c10565b610dd860a0830185610bcf565b610de560c0830184610cfd565b95945050505050565b6000602082019050610e036000830184610cfd565b92915050565b600081519050919050565b600082825260208201905092915050565b600081905092915050565b600082825260208201905092915050565b6000610e4c82610f35565b9150610e5783610f35565b9250827fffffffffffffffffffffffffffffffffffffffffffffffffffffffffffffffff03821115610e8c57610e8b610fb5565b5b828201905092915050565b6000610ea282610f35565b9150610ead83610f35565b925082610ebd57610ebc610fe4565b5b828204905092915050565b6000610ed382610f15565b9050919050565b6000610ee582610f15565b9050919050565b60008115159050919050565b6000819050919050565b6000819050610f108261107c565b919050565b600073ffffffffffffffffffffffffffffffffffffffff82169050919050565b6000819050919050565b600060ff82169050919050565b6000610f5782610f02565b9050919050565b6000610f6982610f35565b9050919050565b6000610f7b82610f3f565b9050919050565b60005b83811015610fa0578082015181840152602081019050610f85565b83811115610faf576000848401525b50505050565b7f4e487b7100000000000000000000000000000000000000000000000000000000600052601160045260246000fd5b7f4e487b7100000000000000000000000000000000000000000000000000000000600052601260045260246000fd5b7f4e487b7100000000000000000000000000000000000000000000000000000000600052602160045260246000fd5b6000601f19601f8301169050919050565b7f5341000000000000000000000000000000000000000000000000000000000000600082015250565b6002811061108d5761108c611013565b5b50565b61109981610eec565b81146110a457600080fd5b50565b6110b081610f35565b81146110bb57600080fd5b5056fea264697066735822122037ca39154c2da1c1d90c523ea0cf4563755d69f7b0ac782791b2f26c71588f6e64736f6c63430008040033",
  "linkReferences": {},
  "deployedLinkReferences": {}
}